{
  "contractName": "ReadWriteTester",
  "abi": [
    {
      "constant": false,
      "inputs": [],
      "name": "constuctor",
      "outputs": [],
      "payable": false,
      "stateMutability": "nonpayable",
      "type": "function"
    },
    {
      "constant": true,
      "inputs": [],
      "name": "getString",
      "outputs": [
        {
          "internalType": "string",
          "name": "",
          "type": "string"
        }
      ],
      "payable": false,
      "stateMutability": "view",
      "type": "function"
    },
    {
      "constant": false,
      "inputs": [
        {
          "internalType": "string",
          "name": "_newstring",
          "type": "string"
        }
      ],
      "name": "setString",
      "outputs": [],
      "payable": false,
      "stateMutability": "nonpayable",
      "type": "function"
    }
  ],
  "bytecode": "0x608060405234801561001057600080fd5b506103b2806100206000396000f3fe608060405234801561001057600080fd5b50600436106100415760003560e01c80637fcaf6661461004657806389ea642f14610101578063dfe4858a14610184575b600080fd5b6100ff6004803603602081101561005c57600080fd5b810190808035906020019064010000000081111561007957600080fd5b82018360208201111561008b57600080fd5b803590602001918460018302840111640100000000831117156100ad57600080fd5b91908080601f016020809104026020016040519081016040528093929190818152602001838380828437600081840152601f19601f82011690508083019250505050505050919291929050505061018e565b005b6101096101a8565b6040518080602001828103825283818151815260200191508051906020019080838360005b8381101561014957808201518184015260208101905061012e565b50505050905090810190601f1680156101765780820380516001836020036101000a031916815260200191505b509250505060405180910390f35b61018c61024a565b005b80600190805190602001906101a49291906102d8565b5050565b606060018054600181600116156101000203166002900480601f0160208091040260200160405190810160405280929190818152602001828054600181600116156101000203166002900480156102405780601f1061021557610100808354040283529160200191610240565b820191906000526020600020905b81548152906001019060200180831161022357829003601f168201915b5050505050905090565b336000806101000a81548173ffffffffffffffffffffffffffffffffffffffff021916908373ffffffffffffffffffffffffffffffffffffffff1602179055506040518060400160405280600b81526020017f68656c6c6f20776f726c64000000000000000000000000000000000000000000815250600190805190602001906102d59291906102d8565b50565b828054600181600116156101000203166002900490600052602060002090601f016020900481019282601f1061031957805160ff1916838001178555610347565b82800160010185558215610347579182015b8281111561034657825182559160200191906001019061032b565b5b5090506103549190610358565b5090565b61037a91905b8082111561037657600081600090555060010161035e565b5090565b9056fea265627a7a7231582037ef698ab1db067b086a00c0b03f2867f194c6b8fedcb74db8b731b0f2fce66d64736f6c63430005100032",
  "source": "pragma solidity >=0.4.22 <0.7.5;\n\ncontract ReadWriteTester {\n\n    address creator;\n    string storedString;\n\n    function constuctor() public {\n        creator = msg.sender;\n        storedString = 'hello world';\n    }\n\n    function getString() public view returns (string memory) {\n        return storedString;\n    }\n\n    function setString(string memory _newstring) public {\n        storedString = _newstring;\n    }\n\n}\n",
  "sourcePath": "/home/eoin/projects/provide/truffle/contracts/readwrite.sol",
  "compiler": {
    "name": "solc",
    "version": "0.5.16+commit.9c3226ce.Emscripten.clang"
  },
  "schemaVersion": "3.3.4",
  "updatedAt": "2021-03-10T19:20:06.518Z",
  "devdoc": {
    "methods": {}
  },
  "userdoc": {
    "methods": {}
  }
}